:020000040800F2
:10000000A811002001010008651A00085118000815
:10001000611A0008E7010008F5420008000000002E
:10002000000000000000000000000000291E000881
:100030004502000800000000FF1D00082B1E0008FC
:100040001B0100081B0100081B0100081B01000820
:100050001B0100081B0100081B0100081B01000810
:100060001B0100081B0100081B0100081B01000800
:100070001B0100081B0100081B0100081B010008F0
:100080001B0100081B0100081B0100081B010008E0
:100090003D4200081B0100081B0100081B0100086D
:1000A0001B0100081B0100081B0100081B010008C0
:1000B0001B0100081B0100081B0100081B010008B0
:1000C0001B0100081B0100081B0100081B010008A0
:1000D0001B0100081B0100081B0100081B01000890
:1000E0001B0100081B0100081B010008DFF80CD0F1
:1000F00000F03CF8004800474F430008A8110020DA
:100100000648804706480047FEE7FEE7FEE7FEE7B1
:10011000FEE7FEE7FEE7FEE7FEE7FEE7B91E0008A2
:10012000ED00000840EA01039B0703D009E008C97D
:10013000121F08C0042AFAD203E011F8013B00F8AC
:10014000013B521EF9D27047D2B201E000F8012BF8
:10015000491EFBD270470022F6E710B513460A4647
:1001600004461946FFF7F0FF204610BD064C074D28
:1001700006E0E06840F0010394E807009847103477
:10018000AC42F6D3FFF7B6FF98430008B843000827
:1001900070B58C1810F8015B15F0070301D110F849
:1001A000013B2A1106D110F8012B03E010F8016B76
:1001B00001F8016B5B1EF9D12B0705D40023521EF9
:1001C0000DD401F8013BFAE710F8013BCB1A921C61
:1001D00003E013F8015B01F8015B521EF9D5A1425F
:1001E000D8D3002070BD00BFFEE710B502F068FC58
:1001F000002010BD70B504460D4602F073FC0020CF
:1002000070BD10B502F0E0FB002010BD70B50446D3
:100210000D4602F0EDFE002070BD000007480068AA
:1002200040F0807005490860002005494860084694
:10023000006840F00100086070470000FCED00E03D
:10024000001000E07047704770B50A480468001D50
:100250000568001D0668344454B10822064920464A
:1002600001F0F8FA042204491031284601F0F2FAAC
:1002700070BD0000E8F7FF1F3A0000202DE9F847A5
:100280000346002294466EE14FF0010808FA02F49A
:10029000D1F8008008EA0400A0427DD1DFF8DCA29A
:1002A000D1F80480A8EB0A09D0453AD014DCB8F1A3
:1002B000030F50D009DCB8F1000F31D0B8F1010FB5
:1002C0001CD0B8F1020F49D120E0B8F1110F18D0BD
:1002D000B8F1120F42D11EE0B9F5881F25D006DC17
:1002E000B9F5803F20D0B9F5801F37D11AE0B9F5B4
:1002F000001F18D0B9F5041F30D117E0D1F80CC099
:100300002DE0D1F80C8008F1040C28E0D1F80C8025
:1003100008F1080C23E0D1F80C8008F10C0C1EE069
:1003200000BF00BF00BF00BF00BF00BFD1F8088002
:10033000B8F1000F02D14FF0040C0BE0D1F80880A7
:10034000B8F1010F03D14FF0080C1C6102E04FF02F
:10035000080C5C6103E04FF0000C00E000BF00BF40
:10036000FF2801D8984601E003F104084646FF281B
:1003700002D84FEA820803E0A2F108084FEA880891
:100380004746D6F800804FF00F0909FA07F928EA26
:1003900009080CFA07F900E088E048EA0908C6F8FD
:1003A0000080D1F8048008F08058B8F1805F7DD1DA
:1003B00000BFDFF8CC81D8F8188048F00108DFF8DA
:1003C000C091C9F81880C846D8F8188008F001080C
:1003D000CDF8008000BF00BF4FEAB9384FEA92095C
:1003E00058F829504FEA82784FEA18794FF00F08F1
:1003F00008FA09F825EA0805DFF88881434502D1A3
:100400004FF0000816E0DFF88081434502D14FF03D
:1004100001080FE0DFF87481434502D14FF0020874
:1004200008E0DFF86C81434502D14FF0030801E09A
:100430004FF004084FEA82794FEA197908FA09F86F
:1004400048EA0505DFF84C814FEA920948F829503F
:10045000D1F8048008F48038B8F5803F0AD1DFF87D
:100460003881D8F8008048EA0008DFF82C91C9F8F4
:10047000008009E0DFF82081D8F8008028EA000831
:10048000DFF81491C9F80080D1F8048008F400382E
:10049000B8F5003F10D1DFF8008108F10408D8F862
:1004A000008048EA0008DFF8F09000E05AE009F127
:1004B0000409C9F800800DE0DFF8DC8008F10408C9
:1004C000D8F8008028EA0008DFF8CC9009F1040988
:1004D000C9F80080D1F8048008F48018B8F5801FAE
:1004E0000ED1DFF8B48008F10808D8F8008048EA97
:1004F0000008DFF8A49009F10809C9F800800DE0B0
:10050000DFF8948008F10808D8F8008028EA00088D
:10051000DFF8849009F10809C9F80080D1F8048057
:1005200008F40018B8F5001F0ED1DFF86C8008F150
:100530000C08D8F8008048EA0008DFF85C9009F160
:100540000C09C9F800800DE0DFF84C8008F10C08B8
:10055000D8F8008028EA0008DFF83C9009F10C097F
:10056000C9F80080521CD1F8008028FA02F8B8F1CE
:10057000000F7FF489AEBDE8F8870000000011107D
:100580000010024000080140000C01400010014032
:100590000014014008000140000401400AB101615B
:1005A00001E00B04036170470148006870470000D8
:1005B000880000200348006803490978084401497D
:1005C00008607047880000209000002010B508489F
:1005D000006840F0100006490860032000F0A8F809
:1005E000002000F007F800F02BF8002010BD0000FC
:1005F0000020024070B504460E4800784FF47A712E
:10060000B1FBF0F00C490968B1FBF0F5284601F0A8
:1006100087F808B1012070BD102C07D200222146B6
:10062000501E00F047F80548046001E00120F2E7A1
:100630000020F0E790000020940000208C000020B3
:1006400008B500BF1148806940F001000F4988617A
:100650000846806900F00100009000BF00BF00BFA5
:100660000846C06940F08050C8610846C06900F083
:100670008050009000BF00BF00BF0549486820F0CF
:10068000E06040F08060486000BF08BD001002409C
:100690000000014001460846002809DB00F01F0366
:1006A00001229A4043099B0003F1E023C3F8002193
:1006B00000BF70472DE9F05F80460D4616460027C3
:1006C00003F01AFE074639462A46334601F0070072
:1006D000C0F1070ABAF1040F02D94FF0040A01E091
:1006E000C0F1070AD14600F1040ABAF1070F02D29D
:1006F0004FF0000A01E0A0F1030AD4464FF0010ACE
:100700000AFA09FAAAF1010A0AEA020A0AFA0CFA32
:100710004FF0010B0BFA0CFBABF1010B0BEA030BD7
:100720004AEA0B042146404603F0EEFDBDE8F09F87
:1007300000BF00F00702064B19684FF6FF0319408F
:10074000044B0B4343EA0221014B196000BF704781
:100750000CED00E00000FA0570B505460C4604F00B
:100760008000802806D104F0070605F1280000EB80
:10077000461103E005F5947000EB44111AB900200E
:100780000873CB8004E0012008730B81180C4881AA
:10079000002070BD704770B504460D4604F1280175
:1007A00001EB45114A692946D4F8680202F0EFF9D5
:1007B00070BD70B504460D4604F5947101EB45110A
:1007C0004A692946D4F8680202F061FA70BD70B532
:1007D00004460E4606F08000802808D106F0070186
:1007E00004F1280000EB41150120687007E006F0D5
:1007F000070104F5947000EB41150020687006F0C5
:100800000700287000BF94F82802012801D10220B7
:1008100070BD012084F8280200BF2946206803F03B
:10082000DEF800BF002084F8280200BF00BFEFE719
:1008300070B504460E4606F00F006168884201D983
:10084000012070BD06F08000802808D106F0070165
:1008500004F1280000EB41150120687007E006F064
:10086000070104F5947000EB41150020687000202A
:10087000A87006F00700287000BF94F8280201282D
:1008800001D10220DDE7012084F8280200BF2946BB
:10089000206803F004FA00BF002084F8280200BF9B
:1008A00000BFCEE72DE9F04705460E4690461F46AD
:1008B0004FF0000906F08000802808D106F00701FB
:1008C00005F1280000EB41140120607007E006F0FC
:1008D000070105F5947000EB41140020607006F0EC
:1008E00007002070C4F81080E770607808B12078A5
:1008F000E081022F01D10020207100BF95F828026D
:10090000012802D10220BDE8F087012085F82802E5
:1009100000BF2146286802F013FE00BF002085F8C2
:10092000280200BF4846EEE72DE9F04105460E4695
:100930001746984606F0070105F5947000EB411440
:100940006761C4F818800020E061607006F007005D
:10095000207006F0070020B92146286803F03AFA13
:1009600003E02146286803F035FA0020BDE8F08155
:1009700070B504460D4605F007006168884201D94C
:10098000012070BD05F08000802808D105F0070126
:1009900004F1280000EB41160120707005E004F519
:1009A000947000EB4516002070700120B07005F0C7
:1009B0000700307000BF94F82802012801D10220FE
:1009C000DFE7012084F8280200BF3146206803F0E9
:1009D000D3F905F0070020B904F50C71206803F085
:1009E0005BF900BF002084F8280200BF00BFC8E701
:1009F0002DE9F04105460E461746984606F00701D8
:100A000005F1280000EB41146761C4F8188000204C
:100A1000E0610120607006F00700207006F007001A
:100A200020B92146286803F0D5F903E0214628685B
:100A300003F0D0F90020BDE8F08110B5044620682D
:100A400003F004FC00F40040B0F5004F02D1204652
:100A500001F009F8206803F0F9FB00F48060B0F5BC
:100A6000806F0ED12068B0F8440020F480602168C7
:100A7000A1F84400204600F059F90021204600F07A
:100A800075F9206803F0E2FB00F48040B0F5804F78
:100A900007D12068B0F8440020F480402168A1F814
:100AA0004400206803F0D2FB00F40050B0F5005F72
:100AB00007D12068B0F8440020F400502168A1F864
:100AC0004400206803F0C2FB00F48050B0F5805F62
:100AD0001CD12068B0F840004FF6FB710840216837
:100AE000A1F840002068B0F840004FF6F7710840C8
:100AF0002168A1F84000204600F02AF92068B0F8EB
:100B0000440020F480502168A1F84400206803F0DC
:100B10009DFB00F40060B0F5006F2AD12068B0F8AA
:100B2000400040F008002168A1F840002068B0F8BB
:100B3000440020F400602168A1F844002068B0F867
:100B4000400040F004002168A1F84000206803F054
:100B50007DFB00F48050B0F5805F07D12068B0F8CD
:100B6000440020F480502168A1F84400204600F0A1
:100B70003FF9206803F06AFB00F40070B0F5007FD5
:100B80000AD12068B0F8440020F400702168A1F870
:100B90004400204600F0E3F8206803F057FB00F41F
:100BA0008070B0F5807F07D12068B0F8440020F451
:100BB00080702168A1F8440010BD30B585B00446AE
:100BC00014B9012005B030BD94F8290228B90020DD
:100BD00084F82802204600F087F8032084F82902D0
:100BE000206803F04FF8142204F110016846FFF763
:100BF00099FA94E80F0002F0EEFE20B1022084F88A
:100C000029020120DEE70021206803F048FB0025CF
:100C100026E0012104F1280000EB4510417004F1A9
:100C2000280000EB4510057004F1280000EB45108A
:100C3000C581002104F1280000EB4510C17004F1CA
:100C4000280000EB4510016104F1280000EB45107D
:100C5000416104F1280000EB45108161681CC5B2B8
:100C60006068A842D5D8002520E0002104F59470E2
:100C700000EB4510417004F5947000EB45100570D1
:100C800004F5947000EB4510C17004F5947000EB0E
:100C90004510016104F5947000EB4510416104F5C5
:100CA000947000EB45108161681CC5B26068A84271
:100CB000DBD8142204F110016846FFF733FA94E8F8
:100CC0000F0002F0D0FF20B1022084F82902012099
:100CD00078E7002084F82400012084F829022068A5
:100CE00002F0BEFF00206DE738B504460D492068CC
:100CF000884215D100BF0C48C06940F400000A4981
:100D0000C8610846C06900F40000009000BF00BF41
:100D1000002211461420FFF7CDFC1420FFF7BAFC87
:100D200038BD0000005C00400010024070B5044671
:100D30000125A068022801D0FFF785FA2946D4F8DA
:100D4000680202F0C3F8D4F8680202F075F870BDCA
:100D500010B50446D4F8680202F09CF810BD10B536
:100D60000446D4F8680202F0A0F810BD70B504463D
:100D70000D4600BF94F82802012801D1022070BD61
:100D8000012084F8280200BF84F8245029462068F6
:100D900003F088FA00BF002084F8280200BF00BFDB
:100DA000EDE710B5044604F50C71D4F8680202F0C2
:100DB000A4F810BD10B5044600BF94F8280201281D
:100DC00001D1022010BD012084F8280200BF0121BA
:100DD0002046FFF7DFFC206802F03FFF206803F0A9
:100DE00023FA00BF002084F8280200BF00BFE9E713
:100DF00010B50446D4F8680202F0D8F8A06928B10A
:100E00000348006840F006000149086010BD00007A
:100E100010ED00E0F8B5044600260025207800F02B
:100E2000010000286BD000274348C06900F08050C3
:100E300070B900BF4048C06940F080503E49C86169
:100E40000846C06900F08050009000BF00BF012735
:100E50003A48006800F48070B0B93848006840F43F
:100E6000807036490860FFF79FFB064606E0FFF7F3
:100E70009BFB801B642801D90320F8BD2F48006824
:100E800000F480700028F2D02B48006A00F440750E
:100E90002DB3A08800F44070A84220D02648006AF4
:100EA00020F440750120264908600020086022488F
:100EB000056205F0010090B1FFF776FB064608E0F9
:100EC000FFF772FB801B41F28831884201D9032071
:100ED000D3E71948006A00F002000028F0D0164855
:100EE000006A20F440706168084313490862012FCA
:100EF00004D10846C06920F08050C86100BF207846
:100F000000F00200022807D10B48406820F440405E
:100F1000A168084308494860207800F010001028B4
:100F200007D10548406820F48000E1680843024981
:100F300048600020A1E7000000100240007000405F
:100F40004004424270B504460D460CB9012070BD04
:100F50005A48006800F00700A8420ED257480068BF
:100F600020F007002843554908600846006800F053
:100F70000700A84201D00120E9E7207800F0020034
:100F800002281DD1207800F00400042805D14C4827
:100F9000406840F4E0604A494860207800F008006A
:100FA000082805D14648406840F4605044494860EC
:100FB0004348406820F0F000A16808434049486079
:100FC000207800F0010078B36068012806D13C4821
:100FD000006800F4003090B90120B8E7606802288A
:100FE00006D13748006800F0007040B90120AEE734
:100FF0003348006800F0020008B90120A7E7304834
:10100000406820F00300616808432D494860FFF7FD
:10101000CBFA064609E0FFF7C7FA801B41F2883198
:10102000884202D9032092E707E02548406800F093
:101030000C006168B0EB810FEDD12048006800F032
:101040000700A8420ED91D48006820F00700284379
:101050001A4908600846006800F00700A84201D05D
:10106000012074E7207800F00400042807D1144818
:10107000406820F4E060E168084311494860207846
:1010800000F00800082808D10D48406820F460509E
:10109000216940EAC1000A49486000F03FF8084968
:1010A0004968C1F30311074A515CC840064908600A
:1010B00006480068FFF79EFA002048E7002002403B
:1010C0000010024080430008940000208C000020A3
:1010D00001480068704700009400002000B5FFF749
:1010E000F7FF04494968C1F30221034A515CC84033
:1010F00000BD0000001002409043000800B5FFF75B
:10110000E7FF04494968C1F3C221034A515CC84062
:1011100000BD00000010024090430008F0B585B00B
:101120000FF26C0C9CE8E01001A8A0E8E0101CA5F0
:101130002D68009500210022002300240020194D75
:10114000696801F00C05F5B1042D02D0082D19D104
:1011500001E0154819E001ADC1F38346AC5D01F42F
:10116000803555B10F4D6D68C5F340451DF805201C
:101170000D4D6543B5FBF2F302E00C4D04FB05F3A6
:10118000184602E000BF084800BF00BF05B0F0BD30
:1011900002030405060708090A0B0C0D0E0F1010B8
:1011A000010200000010024000127A0000093D0018
:1011B000F8B504460CB90120F8BD207800F0010014
:1011C000002878D0F848406800F00C0004280CD0C3
:1011D000F548406800F00C00082811D1F24840683A
:1011E00000F48030B0F5803F0AD1EF48006800F489
:1011F000003000285FD0606800285CD10120DBE768
:1012000000BF6068B0F5803F06D1E748006840F451
:101210008030E549086028E0606858B9E248006815
:1012200020F48030E04908600846006820F48020FF
:1012300008601AE06068B0F5A02F0BD1DA480068AA
:1012400040F48020D84908600846006840F48030A7
:1012500008600AE0D448006820F48030D249086071
:101260000846006820F48020086000BF606888B1EC
:10127000FFF79AF9054606E0FFF796F9401B642848
:1012800001D9032098E7C848006800F4003000281E
:10129000F2D010E0FFF788F9054606E0FFF784F981
:1012A000401B642801D9032086E7BF48006800F48A
:1012B00000300028F2D1207800F00200022857D137
:1012C000B948406800F00C0050B1B748406800F0E1
:1012D0000C00082818D1B448406800F4803098B950
:1012E000B148006800F0020020B12069012801D057
:1012F000012061E7AC48006820F0F800616940EA2D
:10130000C100A949086033E02069E8B10120A7497C
:101310000860FFF749F9054606E0FFF745F9401B6D
:10132000022801D9032047E79F48006800F0020027
:101330000028F2D09C48006820F0F800616940EA7B
:10134000C1009949086013E0002098490860FFF740
:101350002BF9054606E0FFF727F9401B022801D9C3
:10136000032029E79048006800F002000028F2D12D
:10137000207800F0080008282DD1A069B8B101201C
:101380008B490860FFF710F9054606E0FFF70CF9F6
:10139000401B022801D903200EE78348406A00F071
:1013A00002000028F2D0012000F02AFD13E0002006
:1013B0007F490860FFF7F8F8054606E0FFF7F4F804
:1013C000401B022801D90320F6E67748406A00F066
:1013D00002000028F2D1207800F00400042873D124
:1013E00000277148C06900F0805070B900BF6E4896
:1013F000C06940F080506C49C8610846C06900F07F
:101400008050009000BF00BF01276A48006800F4C8
:101410008070B0B96748006840F480706549086022
:10142000FFF7C2F8054606E0FFF7BEF8401B642848
:1014300001D90320C0E65F48006800F480700028EE
:10144000F2D000BFE068012806D15748006A40F09A
:1014500001005549086227E0E06858B95248006A1F
:1014600020F00100504908620846006A20F004009C
:10147000086219E0E06805280BD14B48006A40F08B
:101480000400494908620846006A40F00100086209
:101490000AE04548006A20F0010043490862084616
:1014A000006A20F00400086200BFE068A0B1FFF706
:1014B0007BF8054609E0FFF777F8401B41F28831D9
:1014C000884202D9032077E622E03748006A00F01C
:1014D00002000028EFD012E0FFF766F8054608E0AA
:1014E000FFF762F8401B41F28831884201D903209E
:1014F00062E62D48006A00F002000028F0D1012FBA
:1015000005D12948C06920F080502749C86100BF33
:10151000E069C8B32448406800F00C00082860D097
:10152000E069022848D1002020490866FFF73CF80E
:10153000054606E0FFF738F8401B022801D90320D2
:101540003AE61948006800F000700028F2D1206ADD
:10155000B0F5803F07D11448406820F40030A168FE
:10156000084311494860D4E9080108430E49496815
:1015700021F4741108430C49486001200B490866A6
:10158000FFF712F8054607E03DE0FFF70DF8401BB6
:10159000022801D903200FE60348006800F000701C
:1015A0000028F2D02FE0000000100240000042426C
:1015B0008004424200700040002014490866FEF793
:1015C000F3FF054606E0FEF7EFFF401B022801D9B6
:1015D0000320F1E50E48006800F000700028F2D109
:1015E00011E0E069012800D1E6E50948466806F403
:1015F0008031206A814204D106F47011606A814210
:1016000001D00120D8E50020D6E5000000004242CC
:101610000010024010B504460CB9012010BD606AEC
:1016200000B900BF0021A16294F8510028B9002040
:1016300084F85000204600F031F8022084F8510070
:101640002068006820F0400021680860D4E90101AA
:101650000843E16808432169084361690843218B15
:1016600001F400710843E1690843216A0843A16A53
:101670000843216808600421A06901EA104021683C
:1016800048602068C06920F400602168C8610020BB
:101690006065012084F851000020BFE710B586B0D6
:1016A0000446002002900390049005901949206898
:1016B00088422DD100BF1848806940F480501649F7
:1016C00088610846806900F48050019000BF00BF27
:1016D00000BF0846806940F00400886108468069C0
:1016E00000F00400019000BF00BFA0200290022083
:1016F00003900320059002A90848FEF7BFFD402093
:10170000029000200390049002A90448FEF7B6FD61
:1017100006B010BD0030014000100240000801403A
:1017200070B504462546681EB0F1807F01D30120C4
:101730000FE0681E4FF0E02148610F214FF0FF30AD
:1017400002F0E2FD00204FF0E021886107200861EF
:10175000002070BD10B504460CB9012010BDA06971
:1017600000B100E000BF94F8390028B9002084F8E7
:101770003800204600F028F8242084F8390020683A
:10178000C06820F400502168C860204600F0C0FB0B
:101790002068006920F49040216808612068406951
:1017A00020F02A00216848612068C06840F4005099
:1017B0002168C8600020E063202084F8390084F8A4
:1017C0003A000020CAE7000010B586B004460020A9
:1017D00002900390049005901A49206888422ED107
:1017E00000BF1948806940F4804017498861084665
:1017F000806900F48040019000BF00BF00BF084630
:10180000806940F0040088610846806900F00400A7
:10181000019000BF00BF48150290022003900320F2
:10182000059002A90948FEF729FD4FF48060029057
:1018300000200390049002A90448FEF71FFD06B0A3
:1018400010BD0000003801400010024000080140B7
:1018500000BFFEE730B50B46002100BF16E00A24AA
:10186000B4EB107F05D9302404EB107403F8114059
:1018700005E0412404EB10740A3C03F81140000118
:1018800000254C00641C1D554C1CE1B29142E6DB66
:1018900030BD000000B585B000200190029003909B
:1018A000049000BF3948806940F0100037498861D2
:1018B0000846806900F01000009000BF00BF00BF24
:1018C0000846806940F0200088610846806900F081
:1018D0002000009000BF00BF00BF0846806940F0B4
:1018E000040088610846806900F00400009000BF91
:1018F00000BF00BF0846806940F0080088610846C4
:10190000806900F00800009000BF00BF00224FF483
:1019100000511F48FEF742FE00224FF43C411D4893
:10192000FEF73CFE4FF40050019001200290002091
:1019300003900220049001A91548FEF79FFC4FF484
:10194000305001900120029000200390022004906A
:1019500001A91048FEF792FC4FF4104001901120AD
:101960000290012003900220049001A90948FEF78B
:1019700085FC4FF48040019000200290039001A963
:101980000448FEF77BFC05B000BD000000100240DB
:1019900000100140000C014010B50E480E490860CF
:1019A0004FF48270486000210B488160C160016182
:1019B00041614FF4007181610821C1610021016220
:1019C000416281620A21C162FFF724FE08B1FEF77D
:1019D0003AFC10BD003001408801002010B50B48D2
:1019E0000B4908604FF4E1304860002108488160ED
:1019F000C16001610C21416100218161C161FFF77A
:101A0000A9FE08B1FEF71FFC10BD00000038014020
:101A1000E001002010B500220D490E4801F078F8D1
:101A200008B1FEF710FC0C490A4801F005FB08B1AB
:101A3000FEF709FC0949074800F0DFFB08B1FEF793
:101A400002FC044801F0C2FB08B1FEF7FCFB10BD2C
:101A500004000020200200209C00002074000020D0
:101A600000BFFEE770472DE9F0470546BDE1286855
:101A7000B0F8449009F00F06002E7ED109F0100056
:101A8000B0BB00BF2968098848F60F7201EA02005E
:101A900040F400412A68118000BF05F1280428683D
:101AA000B0F85010207801EBC000801C296801F5C7
:101AB000806131F81000C0F30900E061E1696069FC
:101AC0000844606100212846FEF765FE95F8240071
:101AD0000028CBD0A0690028C8D195F8240040F098
:101AE00080002968A1F84C00002085F824007CE1E2
:101AF000FFE705F594742868B0F8008008F40060EA
:101B000030B32868B0F85010207801EBC000801D79
:101B1000296801F5806131F81000C0F30900E06127
:101B2000A18B8BB2E28805F50C71286802F092FB5C
:101B300000BF2968098840F68F7201EA020040F070
:101B400080012A68118000BF2846FFF72AF94CE17E
:101B500008F40040002889D000BF2968098840F6B1
:101B60008F7201EA020040F080012A68118000BFF4
:101B70002868B0F85010207800E069E001EBC00060
:101B8000801D296801F5806131F81000C0F309005B
:101B9000E061E06990B1606980B1B4F81CC01FFADF
:101BA0008CF3E2886169286802F054FBE16960699E
:101BB0000844606100212846FEF7FBFD00BF2A684B
:101BC0002968B1F850100A4402F20C41084600BFDF
:101BD000236953B9038848F2FF3C03EA0C030380EE
:101BE000038843F4004303801EE023693E2B0DD895
:101BF00000BF23695908237C03F0010303B1491C8A
:101C00004FF6FF7303EA812303800DE000BF2369D1
:101C10005909237C03F01F0303B9491E4FF4004305
:101C200043EA8123038000BF00BF00BF00BF2968D3
:101C300009884BF68F7201EA020080F4805080F42C
:101C4000005040F4004141F080012A681180CCE04E
:101C50007100286830F8118008F4004000287ED018
:101C600000BF7200296831F8121040F68F7201EA45
:101C7000020040F0800173002A6822F8131000BFB0
:101C800005F5947000EB4614207BB0B92868B0F8D5
:101C90005010207801EBC000801D296801F580619B
:101CA00031F81000C0F30907002F4FD0E2886169B6
:101CB0003B46286802F0CEFA48E0217849002868BF
:101CC00030F8110000F48040A8B12868B0F8501036
:101CD000207801EBC000801C296801F5806131F893
:101CE0001000C0F30907DFB1228961693B4628680B
:101CF00002F0B0FA14E02868B0F85010207801EB38
:101D0000C000801D296801F5806131F81000C0F322
:101D100009072FB1628961693B46286802F09AFA87
:101D200000BF00BF22785200296831F8121048F62F
:101D30008F7201EA020040F4004141F0C0012378B3
:101D40005B002A6822F8131000BF00BFE069384426
:101D5000E061606938446061A06920B100E00DE095
:101D60002069B84204D921782846FEF722FD05E013
:101D700021782846D4E90523FEF7D6FD08F0800037
:101D800060B305F1280000EB461400BF720029681B
:101D900031F8121048F60F7201EA020040F40041D7
:101DA00073002A6822F8131000BF2868B0F850109A
:101DB000207801EBC000801C296801F5806131F8B2
:101DC0001000C0F30900E061E169606908446061E6
:101DD000A06920B921782846FEF7DDFC05E02178CE
:101DE0002846D4E90523FEF703FE2868B0F844002E
:101DF00000F4004000287FF43AAEBDE8F087704759
:101E000008B508490968C9084FF47A72B1FBF2F1C4
:101E10004143009100BF00BF00994A1E0092002973
:101E2000F9D108BD94000020704710B5FEF7C2FB41
:101E300010BD00B593B0282109A8FEF78CF9142134
:101E400004A8FEF788F9002000900190029003900A
:101E50000120099000040A9000200B9001200D90B1
:101E600002201090C10311914FF4E011129109A8C2
:101E7000FFF79EF908B1FEF7E6F90F200490022063
:101E80000590002006904FF4806007900020089095
:101E9000022104A8FFF756F808B1FEF7D4F9102084
:101EA0000090002003906846FEF7B4FF08B1FEF7EB
:101EB000CAF913B000BD00001148006840F00100ED
:101EC0000F490860084640680E4908400C494860C0
:101ED000084600680C49084009490860084600683F
:101EE00020F4802008600846406820F4FE00486026
:101EF0004FF41F008860C803044908607047000061
:101F0000001002400000FFF8FFFFF6FE08ED00E0C1
:101F100070B504462168096921F44051E268114313
:101F2000226811612269A1681143626941EA0205D0
:101F30002168C96841F20C62914329432268D1604B
:101F40002168496921F44071A269114322685161F5
:101F5000564A2168914254D1FFF7D0F800EBC001F6
:101F600001EB001162689200B1FBF2F100EBC002DC
:101F700002EB001263689B00B2FBF3F26423B2FB36
:101F8000F3F202EBC20303EB0212A1EB8201322255
:101F900002EB01116422B1FBF2F101F0F00100EB60
:101FA000C00202EB001263689B00B2FBF3F26423F1
:101FB000B2FBF3F201EB021200EBC00101EB0011E6
:101FC00063689B00B1FBF3F100EBC00303EB00136C
:101FD0006668B600B3FBF6F36426B3FBF6F303EBD7
:101FE000C30606EB0313A1EB8301322303EB0111BC
:101FF0006423B1FBF3F101F00F01114422689160F9
:1020000053E0FFF76BF800EBC00101EB00116268D1
:102010009200B1FBF2F100EBC00202EB0012636828
:102020009B00B2FBF3F26423B2FBF3F202EBC203B8
:1020300003EB0212A1EB8201322202EB01116422B6
:10204000B1FBF2F101F0F00100EBC00202EB001273
:1020500063689B00B2FBF3F26423B2FBF3F201EB83
:10206000021200EBC00101EB001163689B00B1FBA1
:10207000F3F100EBC00303EB00136668B600B3FB9B
:10208000F6F36426B3FBF6F303EBC30606EB031388
:10209000A1EB8301322303EB01116423B1FBF3F1C4
:1020A00001F00F0111442268916070BD00380140B9
:1020B00070B504460E46D4F8B852002085F850009A
:1020C00069782878D4F8BC321A699047002070BD2E
:1020D00070B504460E46D4F8B85269782878D4F81A
:1020E000BC32DA68904740232A460121204600F09E
:1020F0008BFE002070BD70B504460D468121204640
:1021000000F032FD0021E1620121204600F02CFDAB
:102110000021C4F86C11D4F8B80250B1D4F8BC1244
:1021200088688047D4F8B80201F003FA0020C4F8A8
:10213000B802002070BD70B50546D5F8B842E06C15
:10214000012807D161782078D5F8BC32DA68904749
:102150000020E064002070BD01460A20088001488C
:1021600070470000640100200146292008800148D2
:1021700070470000D4000020014629200880014853
:102180007047000000010020014629200880014816
:10219000704700002C0100202DE9F04104460F4655
:1021A0000026402303228121204600F015FE012154
:1021B000E16240230322204600F00EFE0121C4F814
:1021C0006C11542001F0B6F9C4F8B802D4F8B80282
:1021D00008B901260EE0D4F8B852002085F8500066
:1021E000D4F8BC124868804740232A460121204683
:1021F00000F00AFE3046BDE8F0810246022011B12F
:10220000C2F8BC12002070472DE9F04104460D468B
:102210001646D4F8B87294F89C0203280FD197F8A8
:10222000500048B9012087F8500033462A468121E2
:10223000204600F0C5FE02E00120BDE8F08100204C
:10224000FBE700002DE9F84306460C46D6F8B852E5
:102250000027B846002000908146207800F06000FA
:1022600090B3202870D16078801E0A2823D2DFE83E
:1022700000F0130822222222221A0F05A0782864D7
:1022800020E0012205F14001304600F004F919E098
:1022900060880012686415E0012205F144013046AF
:1022A00000F0F9F80EE00120E864E28829463046A3
:1022B00000F0D0F806E02146304600F0BFF84FF0BD
:1022C000020900BF00BF70E0FFE7607830B1062868
:1022D00015D00A2839D00B2857D148E096F89C022F
:1022E000032805D102226946304600F0D4F805E003
:1022F0002146304600F0A2F84FF002094CE0608819
:102300002221B1EB202F0BD1E088202801DD2020F5
:1023100000E0E0880746D6F8BC02D0F800800DE067
:1023200060882121B1EB202F08D1DFF88880E08878
:10233000092801D9092000E0E08807463A464146CD
:10234000304600F0A8F827E028E096F89C02032821
:1023500006D1012205F14801304600F09CF805E065
:102360002146304600F06AF84FF0020914E096F872
:102370009C02032802D1A078A86405E021463046DB
:1023800000F05CF84FF0020906E02146304600F00C
:1023900055F84FF0020900BF00BF06E02146304665
:1023A00000F04CF84FF0020900BF00BF4846BDE8FE
:1023B000F88300005801002070B504460D46D4F89B
:1023C000B4022946426820469047002070BD70B58F
:1023D00004460D4694F89C02012804D0022803D03C
:1023E00003280CD101E000BF00BF6888012805D197
:1023F0000020C4F8A402204600F05EF804E029465C
:10240000204600F01BF800BF00BF70BD70B5064647
:102410000C4615462B4622460021304600F0F4FCBF
:10242000002070BD70B506460C4615462B46224668
:102430000021304600F0C4FD002070BD70B5044698
:102440000D468021204600F08FFD0021204600F03F
:102450008BFD70BD70B504460E4615460320C4F8CA
:1024600094024FF4AE700551001D05512B463246C3
:102470000021204600F0C8FC002070BD10B50446C5
:102480000520C4F8940200231A461946204600F09D
:10249000BBFC002010BD70B504460E461546022058
:1024A000C4F89402E56125622B463246002120469D
:1024B00000F086FD002070BD10B504460420C4F86D
:1024C000940200231A461946204600F079FD0020A8
:1024D00010BD000070B505460C462DB922460649D0
:1024E00006A000F0E7F904E02246034903A000F04B
:1024F000E1F9014870BD0000A8070020437573741E
:102500006F6D2048494420436F6E66696700000084
:102510000246122008800148704700002000002079
:1025200070B505460C462DB92246064906A000F0B6
:10253000C1F904E02246034903A000F0BBF90148B9
:1025400070BD0000A8070020437573746F6D2048AC
:10255000494420496E74657266616365000000003D
:102560000246042008800148704700003400002023
:1025700070B505460C462246024903A000F09AF9C0
:10258000004870BDA807002053544D6963726F6501
:102590006C656374726F6E696373000070B5054695
:1025A0000C462DB92246064906A000F083F904E046
:1025B0002246034903A000F07DF9014870BD0000E8
:1025C000A807002053544D333220437573746F6D48
:1025D0002048756D616E20696E7465726661636511
:1025E0000000000070B505460C461A202080FDF75B
:1025F0002BFE014870BD00003800002070B5044675
:102600000D46E888012804D029462046FFF716FF2A
:102610001EE094F89C02012804D0022803D003286D
:1026200010D109E000BF0020A060012204F10801E0
:102630002046FFF730FF0AE00122211D2046FFF768
:102640002AFF04E029462046FFF7F8FE00BF00BF3E
:1026500070BDF8B504460E46002000900027002506
:1026600070880012082875D2DFE800F0C7040C203B
:10267000C7C7A5B5207CD4F8B0120A686946904750
:102680000746C1E0207C40B9D4F8B402816A6846AC
:10269000884707460220787007E0D4F8B402C16A80
:1026A00068468847074602207870ADE0B078062873
:1026B00078D2DFE800F00316293C5063D4F8B0026A
:1026C000406838B1207CD4F8B0124A686946904717
:1026D000074605E031462046FFF7B0FE681CC5B24C
:1026E00067E0D4F8B002806838B1207CD4F8B0122A
:1026F0008A6869469047074605E031462046FFF75D
:102700009DFE681CC5B254E0D4F8B002C06838B170
:10271000207CD4F8B012CA6869469047074605E0A5
:1027200031462046FFF78AFE681CC5B241E0D4F866
:10273000B002006938B1207CD4F8B0120A69694649
:102740009047074605E031462046FFF777FE681CB4
:10275000C5B22EE051E0D4F8B002406938B1207C17
:10276000D4F8B0124A6969469047074605E03146F9
:102770002046FFF763FE681CC5B21AE0D4F8B00229
:10278000806940B1207CD4F8B0128A6969469047CC
:10279000074606E006E031462046FFF74FFE681C7C
:1027A000C5B206E031462046FFF748FE681CC5B2B8
:1027B00000BF00BF28E0207C30B9D4F8B402416BE0
:1027C00068468847074605E031462046FFF736FE53
:1027D000681CC5B218E0207C40B9D4F8B402016B83
:1027E0006846884707460720787005E0314620464E
:1027F000FFF724FE681CC5B206E031462046FFF70D
:102800001DFE681CC5B200BF00BF05B1F8BDBDF814
:10281000000088B1F08878B1F088BDF800108842D7
:1028200002DDBDF8000000E0F0880090BDF8002057
:1028300039462046FFF72FFEF08810B92046FFF7F3
:102840003BFE00BFE2E70146002002E0421CD0B29E
:10285000491C0A78002AF9D1704770B504460D4624
:1028600094F89C02012804D0022803D003281AD12E
:1028700001E000BF00BFE888022804D029462046B6
:10288000FFF7DCFD14E00120E060D4F8A40218B1E9
:10289000E06840F00200E060022204F10C012046F2
:1028A000FFF7F9FD04E029462046FFF7C7FD00BF0A
:1028B00000BF70BD2DE9F04104460D4617460026C5
:1028C000FCB12046FFF7BFFF022101EB400038803A
:1028D0003A783046711CCEB22A5403223046711C1D
:1028E000CEB22A540AE014F8012B3046711CCEB245
:1028F0002A5400223046711CCEB22A542078002877
:10290000F1D1BDE8F0810146002031B1012906D0A6
:10291000022906D0032908D105E0002007E00220A3
:1029200005E0012003E0022001E0022000BF00BF1B
:10293000704700002DE9F04104460D4617461E463B
:10294000812C02D0B12C32D130E0012D04D0022DE7
:1029500003D0032D28D101E000BF25E015480088F1
:102960001549098888421BD01448154A128800EB83
:10297000821140223046FDF7D5FB11480088401CEB
:102980000F49088008460088082801D100200880E7
:1029900009480088401C084908804020BDE8F081B3
:1029A00001200849087000BF00BF00E000BF00BF61
:1029B0000020F3E78001002082010020A80B002006
:1029C0007E0100208401002000200A4908800A4975
:1029D00008800A4908800A4908800A4908800A498B
:1029E00008800A4908800A490880012009490870BE
:1029F000704700007401002076010020780100205B
:102A00007A0100207C0100207E010020800100204E
:102A100082010020840100202DE9F04105460F4687
:102A200090461C46069E912D02D0B12D37D135E03F
:102A300006B934E02078072803D101201A4908702C
:102A40002DE01A4800881A490988401A80B20828DF
:102A500005D180211748006801F08AFC1FE0164963
:102A6000164A128801EB821032462146FDF75AFBC6
:102A700012480088401C1149088008460088082830
:102A800001D10020088009480088401C07490880BF
:102A900001210848006801F06BFC00E000BF00BFA6
:102AA0000120BDE8F08100006E01002078010020C7
:102AB0007A01002000000020A809002074010020F5
:102AC000704700002DE9F04106460F4614461D46AA
:102AD000AAB221460248FFF797FBBDE8F08100004B
:102AE0002002002070B50948D0F8B84223460022E1
:102AF00003218120FFF71EFF051E05DD2B46224620
:102B000000210846FFF7DEFF70BD00002002002014
:102B100070B504460D4616460CB9022070BDD4F8B7
:102B2000B40210B10020C4F8B4020DB1C4F8B05220
:102B3000012084F89C022670204600F0FBF800205B
:102B4000ECE72DE9F04104460D4600260027294612
:102B5000D4F8C002FDF76CFE06463046FFF7D3FE00
:102B600007463846BDE8F0812DE9F04104460D46A0
:102B7000002600272946D4F8C002FDF728FE0646A5
:102B80003046FFF7C0FE07463846BDE8F0812DE924
:102B9000F04104460E461746002E64D104F1140598
:102BA000D4F89402022848D1D5E90301884210D90B
:102BB000D5E90301401AE860A88982B23946204667
:102BC000FFF730FC00231A461946204600F01CF996
:102BD0003EE02969A868B0FBF1F201FB1200B8B928
:102BE0002969A868884213D3A868D4F89812884243
:102BF0000ED2002211462046FFF714FC0020C4F834
:102C0000980200231A461946204600F0FDF81FE0FE
:102C1000D4F8B402C06840B194F89C02032804D1EF
:102C2000D4F8B402C168204688478021204600F0CD
:102C30009BF92046FFF722FC0AE0D4F8940204280E
:102C400002D0D4F8940218B98021204600F08CF903
:102C500094F8A002012818D1204600F0F5F90020D0
:102C600084F8A00211E0D4F8B402406950B194F89D
:102C70009C02032806D1D4F8B402314642692046AA
:102C8000904702E00220BDE8F0810020FBE72DE93B
:102C9000F04104460E461746BEBB04F5AA75D4F8AB
:102CA0009402032825D1D5E90301884210D9D5E93A
:102CB0000301401AE860D5E90301884201D2E868BF
:102CC00000E0286982B239462046FFF79FFB2FE0DB
:102CD000D4F8B402006940B194F89C02032804D1EE
:102CE000D4F8B4020169204688472046FFF7E4FB88
:102CF0001EE0D4F8940205281AD10020C4F89402EA
:102D00000021204600F030F912E0FFE7D4F8B402C9
:102D1000806950B194F89C02032806D1D4F8B4021B
:102D2000314682692046904702E00220BDE8F081EA
:102D30000020FBE710B504461948C0F86842C4F803
:102D4000C00218481649086008204860022114484B
:102D5000816000218161C1610162FDF72EFF08B130
:102D6000FDF771FA182300221146D4F8C002FDF7CE
:102D7000F3FC582300228021D4F8C002FDF7ECFCBC
:102D8000982300228121D4F8C002FDF7E5FCD82366
:102D900000220121D4F8C002FDF7DEFC002010BDA6
:102DA000E4040020005C004010B50246D2F8C032B6
:102DB00001F08000802807D101F07F0403F1280092
:102DC00000EB4410807810BD01F07F0403F594708F
:102DD00000EB44108078F6E72DE9F04704460F46F3
:102DE00015461E464FF00008C1462B46324639466E
:102DF000D4F8C002FDF756FD80464046FFF783FD3C
:102E000081464846BDE8F0872DE9F04704460D4667
:102E100016461F464FF00008C1463B46324629463B
:102E2000D4F8C002FDF780FD80464046FFF76BFDF9
:102E300081464846BDE8F08710B50446402300228D
:102E400011462046FFF7C8FF01214FF4AC70015135
:102E500040214FF4B27001514023002280212046CE
:102E6000FFF7BAFF0121A16140216162012084F8CE
:102E70009C020020C4F894026060C4F8A402D4F854
:102E8000B80228B12179D4F8B402426820469047AC
:102E9000002010BD014691F89C02042803D191F84E
:102EA0009D0281F89C020020704710B5044694F8FA
:102EB0009C02032808D1D4F8B402C06920B1D4F828
:102EC000B402C16920468847002010BD0246117433
:102ED000002070472DE9F04104460D4600260027EA
:102EE0002946D4F8C002FDF741FF06463046FFF7F9
:102EF0000AFD07463846BDE8F08170B504460D4628
:102F0000294604F52A7000F083F80120C4F89402E1
:102F100040F2AE20005BC4F8980294F8A80200F0DA
:102F20001F0020B1012808D0022812D10BE004F5BF
:102F30002A71204600F051F913E004F52A71204669
:102F400000F0B8FA0DE004F52A71204600F096F979
:102F500007E094F8A80200F08001204600F004F891
:102F600000BF00BF002070BD2DE9F04104460D46B2
:102F7000002600272946D4F8C002FDF7F9FC0646D2
:102F80003046FFF7C0FC07463846BDE8F08170B513
:102F9000044600250026D4F8C002FDF70BFF0546C5
:102FA0002846FFF7B0FC0646304670BD014691F852
:102FB0009C0281F89D02042081F89C020020704749
:102FC0002DE9F04704460D4616461F464FF000080F
:102FD000C1463B4632462946D4F8C002FDF708FDFB
:102FE00080464046FFF78FFC81464846BDE8F087A3
:102FF00038B50648D0F8B842402023460022114692
:1030000000909120FFF708FD38BD0000200200204D
:103010000A7802704A7842708B78CA7803EB0222F1
:1030200042800B794A7903EB022282808B79CA793C
:1030300003EB0222C28070470246002011B1C2F8A1
:10304000B41200E00220704701460020704770B5BE
:1030500004460D46A88810BBE88800BB6888802815
:103060001DD2A87800F07F0694F89C02032804D1B2
:1030700029462046FFF7E2F915E084F89E623146C2
:103080002046FFF727FF2046FFF716FA1EB1022061
:1030900084F89C0207E0012084F89C0203E02946A2
:1030A0002046FFF7CBF970BD70B504460D460226E9
:1030B000D4F8B40238B1D4F8B402294602682046E4
:1030C000904700B90026304670BD000070B5044638
:1030D0000D46A8783649087008460078012804DDB6
:1030E00029462046FFF7AAF960E094F89C020228DE
:1030F00002D003284FD11CE02D480078A8B12C48FD
:1031000000786060032084F89C02294801782046FA
:10311000FFF7CAFF022804D129462046FFF78EF99F
:1031200070BD2046FFF7C8F902E02046FFF7C4F95A
:103130003BE01F48007870B9022084F89C021C48CC
:10314000007860601A4801782046FFF735F920467C
:10315000FFF7B2F91EE0164909786068884216D078
:1031600021792046FFF728F911480078606010485F
:1031700001782046FFF798FF022804D1294620460F
:10318000FFF75CF9CCE72046FFF796F902E020460E
:10319000FFF792F909E029462046FFF74FF9044866
:1031A00001782046FFF708F900BF00BF00BFB7E76E
:1031B0009800002070B505460C466088012804D1AF
:1031C000C5F8A4022846FFF777F970BD10B504468C
:1031D0002046FFF7DCFE002010BD70B505460C460A
:1031E0000026207800F0600060B1202802D040283E
:1031F0003CD100E000BFD5F8B402214682682846E1
:10320000904738E060780A2829D2DFE800F01923D7
:10321000281E280A0528140F21462846FFF719FA08
:1032200022E021462846FFF712FF1DE021462846EE
:10323000FFF74CFF18E021462846FFF7DFF913E0BF
:1032400021462846FFF709FB0EE021462846FFF7F6
:10325000B1FF09E021462846FFF7B9F804E021460E
:103260002846FFF7EBF800BF00BF04E021462846E0
:10327000FFF7E4F800BF00BF304670BD2DE9F04114
:1032800005460E464FF000083479307800F06000B3
:1032900060B1202802D0402871D100E000BFD5F8ED
:1032A000B402314682682846904700E1307800F049
:1032B0006000202809D1D5F8B4023146826828463A
:1032C000904780464046BDE8F081707800285ED087
:1032D00001282FD0032876D195F89C02022802D02D
:1032E000032820D110E054B1802C08D02146284674
:1032F000FFF73AFE80212846FFF736FE03E031460D
:103300002846FFF79BF813E0708840B93CB1802C49
:1033100005D0F08818B921462846FFF725FE284633
:10332000FFF7CAF804E031462846FFF787F800BFE8
:1033300000BFB5E095F89C02022802D003281FD1F7
:1033400010E054B1802C08D021462846FFF70CFE2F
:1033500080212846FFF708FE03E031462846FFF7A4
:103360006DF812E0708848B904F07F0018B121466A
:103370002846FFF7E6FB2846FFF79EF805E091E0B8
:1033800031462846FFF75AF800BF00BF88E095F89D
:103390009C02022802D0032876D126E034B1802C8A
:1033A00004D031462846FFF749F872E004F0800067
:1033B000802809D104F07F0000EB800105F11400A2
:1033C00000EB810008E066E004F07F0000EB800184
:1033D00005F5AA7000EB8100074600203860022244
:1033E00039462846FFF757F853E004F0800080285C
:1033F0000ED104F00F0000EB800105F1140000EB8A
:103400008100406898B931462846FFF717F840E038
:1034100004F00F0000EB800105F5AA7000EB8100BD
:10342000406820B931462846FFF708F831E004F03B
:103430008000802808D104F07F0000EB800105F1B6
:10344000140000EB810007E004F07F0000EB800136
:1034500005F5AA7000EB810007460CB1802C02D163
:103460000020386009E021462846FFF79DFC10B196
:103470000120386001E000203860022239462846E9
:10348000FFF709F805E0FFE731462846FEF7D6FFCB
:1034900000BF00BF04E031462846FEF7CFFF00BF63
:1034A00000BF04E031462846FEF7C8FF00BF00BF5A
:1034B000404608E770B505460C460026207800F027
:1034C000600030B1202802D040282AD100E000BF9F
:1034D00000BF95F89C02012804D0022803D00328DD
:1034E00018D101E000BF00BF207901280DDCD5F81C
:1034F000B40221468268284690470646E08840B9D3
:103500003EB92846FEF7D8FF03E021462846FEF7DD
:1035100095FF04E021462846FEF790FF00BF00BF5C
:1035200004E021462846FEF789FF00BF00BF0020C7
:1035300070BD7047014601487047000050070020E9
:10354000F0B5024600260878400032F8100048F630
:103550008F1400EA0403C87830B101280CD0022887
:1035600005D003280BD104E043F4007309E000BF49
:1035700007E043F4C06304E043F4806301E0012604
:1035800000BF00BF43F4004040F080000C786400AE
:1035900022F8140000BF0C78640032F8144048F69A
:1035A0008F752C400D7844EA050040F4004444F047
:1035B00080040D786D0022F8154000BF087B0028BC
:1035C0007ED14878002852D000BF1046B2F8505043
:1035D00028440D7800F5806707EB0514CD886D1041
:1035E0006D00258000BF00BF0C78640032F8140025
:1035F00000F040048CB100BF0D786D0032F815501A
:1036000048F68F7705EA070444F4004545F0C00505
:103610000F787F0022F8175000BF00BFC87801283C
:1036200013D000BF0C78640032F8144048F6BF7520
:1036300004EA050080F0200040F4004444F08004D7
:103640000D786D0022F81540C3E100BF0C786400CE
:1036500032F8144048F6BF7504EA050040F400440F
:1036600044F080040D786D0022F81540B1E100BFF0
:103670001046B2F8505028440D78042707EBC505D2
:1036800000F5806707EB4504CD886D106D0025803F
:1036900000BF00BF1546B2F8504025440C780627FD
:1036A00007EBC40405F5806707EB4404204600BF20
:1036B0000F6967B9078848F2FF3C07EA0C0700E08A
:1036C00057E00780078847F4004707801EE00F692E
:1036D0003E2F0DD800BF0F697C080F7C07F0010753
:1036E00007B1641C4FF6FF7707EA842707800DE0D7
:1036F00000BF0F697C090F7C07F01F0707B9641E24
:103700004FF4004747EA8427078000BF00BF00BF8F
:1037100000BF0C78640032F8140000F480448CB1CF
:1037200000BF0D786D0032F8155048F68F7705EA26
:10373000070444F4004545F481450F787F0022F8E2
:10374000175000BF00BF00BF0C78640032F814406F
:103750004BF68F7504EA050080F4805080F4005029
:1037600040F4004444F080040D786D0022F81540C8
:103770002FE100BF0C78640032F8144048F68F75D2
:1037800004EA050040F4004444F4C0740D786D0070
:1037900022F8154000BF00BF00BF00BF1046B2F8BE
:1037A000505028440D7800F5806707EB05140D890B
:1037B0006D106D00258000BF00BF00BF00BF104628
:1037C000B2F8505028440D78042707EBC50500F5E2
:1037D000806707EB45044D896D106D00258000BFA3
:1037E00000BF00BF4878002870D100BF0C7864008B
:1037F00032F8140000F480448CB100BF0D786D00E5
:1038000032F8155048F68F7705EA070444F400456E
:1038100045F481450F787F0022F8175000BF00BFA4
:1038200000BF0C78640032F8140000F040048CB142
:1038300000BF0D786D0032F8155048F68F7705EA15
:10384000070444F4004545F0C0050F787F0022F8D6
:10385000175000BF00BF00BF0C78640032F814405E
:1038600048F68F7504EA050040F4004444F0C004B3
:103870000D786D0022F8154000BF00BF0C78640081
:1038800032F814404BF68F7504EA050080F480503E
:1038900080F4005040F4004444F080040D786D0042
:1038A00022F8154000BF00BF0C78640032F81440C5
:1038B00048F6BF7504EA050040F4004444F0800473
:1038C0000D786D0022F8154083E0FFE700BF0C780B
:1038D000640032F8140000F480448CB100BF0D780D
:1038E0006D0032F8155048F68F7705EA070444F466
:1038F000004545F481450F787F0022F8175000BF3E
:1039000000BF00BF0C78640032F8140000F04004DF
:103910008CB100BF0D786D0032F8155048F68F77E6
:1039200005EA070444F4004545F0C0050F787F0020
:1039300022F8175000BF00BF00BF0C78640032F8B7
:10394000144048F68F7504EA050040F4004444F43E
:1039500081440D786D0022F8154000BFC878012819
:1039600013D000BF0C78640032F8144048F6BF75DD
:1039700004EA050080F0200040F4004444F0800494
:103980000D786D0022F8154011E000BF0C7864003E
:1039900032F8144048F6BF7504EA050040F40044CC
:1039A00044F080040D786D0022F8154000BF00BF80
:1039B0000C78640032F814404BF68F7504EA050069
:1039C00040F4004444F080040D786D0022F8154066
:1039D00000BF3046F0BD10B50446002010BD30B524
:1039E0000246087B00285BD1487860B300BF0B78A3
:1039F0005B0032F8130000F040038BB100BF0C787D
:103A0000640032F8144048F68F7504EA050343F465
:103A1000004444F0C0040D786D0022F8154000BF4A
:103A200000BF00BF0B785B0032F8133048F6BF745C
:103A300003EA040040F4004343F080030C78640080
:103A400022F8143007E100BF0B785B0032F8130056
:103A500000F480438BB100BF0C78640032F814404E
:103A600048F68F7504EA050343F4004444F48144A6
:103A70000D786D0022F8154000BF00BF00BF0B7825
:103A80005B0032F813304BF68F7403EA040040F405
:103A9000004343F080030C78640022F81430DAE02D
:103AA000487800286BD100BF0B785B0032F8130018
:103AB00000F480438BB100BF0C78640032F81440EE
:103AC00048F68F7504EA050343F4004444F4814446
:103AD0000D786D0022F8154000BF00BF00BF0B78C5
:103AE0005B0032F8130000F040038BB100BF0C788C
:103AF000640032F8144048F68F7504EA050343F475
:103B0000004444F0C0040D786D0022F8154000BF59
:103B100000BF00BF0B785B0032F8133048F68F749B
:103B200003EA040040F4004343F0C0030C7864004F
:103B300022F8143000BF00BF0B785B0032F813305E
:103B40004BF68F7403EA040040F4004343F0800313
:103B50000C78640022F8143000BF00BF0B785B00C3
:103B600032F8133048F6BF7403EA040040F400430F
:103B700043F080030C78640022F814306BE000BF3F
:103B80000B785B0032F8130000F480438BB100BF68
:103B90000C78640032F8144048F68F7504EA050387
:103BA00043F4004444F481440D786D0022F815403C
:103BB00000BF00BF00BF0B785B0032F8130000F0BD
:103BC00040038BB100BF0C78640032F8144048F613
:103BD0008F7504EA050343F4004444F0C0040D78F3
:103BE0006D0022F8154000BF00BF00BF0B785B00DE
:103BF00032F8133048F68F7403EA040040F40043AF
:103C000043F481430C78640022F8143000BF00BFF5
:103C10000B785B0032F8133048F6BF7403EA0400F7
:103C200040F4004343F080030C78640022F8143021
:103C300000BF00BF0B785B0032F813304BF68F7477
:103C400003EA040040F4004343F080030C7864006E
:103C500022F8143000BF002030BD0146002070471C
:103C600001460020704710B50446012024F8400F9B
:103C700000202080A0802082403C204600F0D4FA22
:103C8000002010BD01464FF43F42B1F84000904380
:103C9000A1F840000020704702460020704730B570
:103CA0000246087B002865D1487888B300BF0B78AE
:103CB0005B0032F8130000F040038BB100BF0C78BA
:103CC000640032F8144048F68F7504EA050343F4A3
:103CD000004444F0C0040D786D0022F8154000BF88
:103CE00000BFC878012845D000BF0B785B0032F8D0
:103CF000133048F6BF7403EA040080F0200040F45B
:103D0000004343F080030C78640022F8143031E063
:103D1000FFE700BF0B785B0032F8130000F480432C
:103D20008BB100BF0C78640032F8144048F68F75F0
:103D300004EA050343F4004444F481440D786D0023
:103D400022F8154000BF00BF00BF0B785B0032F8BF
:103D500013304BF68F7403EA040080F4805080F433
:103D6000005040F4004343F080030C78640022F8D4
:103D7000143000BF002030BD10B50246487898B11D
:103D800000BF0B785B0032F8133048F6BF7403EACB
:103D9000040080F0100040F4004343F080030C78EE
:103DA000640022F8143013E000BF0B785B0032F897
:103DB00013304BF68F7403EA040080F4805040F413
:103DC000004343F080030C78640022F8143000BFF5
:103DD000002010BD2DE9F04306460C46607801280E
:103DE00071D12169A069884204D92569A069401B65
:103DF000A06102E0A5690020A061207BA0B9ABB260
:103E0000E2883046616900F054FA00BF3046B6F8E7
:103E1000502010442278022303EBC20200F5806395
:103E200003EB42010D80E2E02078400036F81000FC
:103E300000F0400000285AD000BF3346607880BBB5
:103E400000BF3246B6F850100A4421784FF00608F9
:103E500008EBC10102F5806808EB4101084600BF8C
:103E600075B9B0F8008048F2FF3908EA0908A0F8EF
:103E70000080B0F8008048F40048A0F8008020E0FE
:103E80003E2D0FD800BF690805F00108B8F1000FFA
:103E900000D0491C4FF6FF7808EA8128A0F800807E
:103EA0000FE011E000BF690905F01F08B8F1000F2D
:103EB00000D1491E4FF4004848EA8128A0F800804C
:103EC00000BF00BF10E0A8E0607801280CD1B6F870
:103ED000500003442078062101EBC00003F5806107
:103EE00001EB400CACF8005000BF67894EE000BF0A
:103EF0006078B0BB00BF3246B6F850100A44217853
:103F0000022303EBC10102F5806303EB4101084684
:103F100000BF55B9038848F2FF3C03EA0C03038055
:103F2000038843F40043038019E03E2D0BD800BF03
:103F3000690805F0010303B1491C4FF6FF7303EA5A
:103F4000812303800BE000BF690905F01F0303B95B
:103F5000491E4FF4004343EA8123038000BF00BFA2
:103F600012E0FFE7607801280ED100BF3046B6F8B6
:103F7000502010442278022303EBC20200F5806334
:103F800003EB42010D8000BF00BF2789ABB23A4668
:103F90003046616900F08DF900BF607888B900BFD4
:103FA0002178490036F8111048F68F7201EA0200B4
:103FB00040F4004141F0C0012278520026F812106E
:103FC00014E06078012811D100BF2178490036F84B
:103FD000111048F68F7201EA020040F4004141F4EA
:103FE00081412278520026F8121000BF00BF00BFA6
:103FF0002178490036F8111048F6BF7201EA020034
:1040000080F0100080F0200040F4004141F0800179
:104010002278520026F8121003E12169A069884233
:1040200004D92569A069401BA06102E0A5690020B0
:10403000A061207BB0BB00BF3246B6F850100A44E6
:104040002178062303EBC10102F5806303EB4101F4
:10405000084600BF55B9038848F2FF3C03EA0C0349
:104060000380038843F40043038019E03E2D0BD8FE
:1040700000BF690805F0010303B1491C4FF6FF7347
:1040800003EA812303800BE000BF690905F01F03E9
:1040900003B9491E4FF4004343EA8123038000BF64
:1040A00000BFA8E0FFE700BF00BF6078B0BB00BF63
:1040B0003246B6F850100A442178022303EBC101BE
:1040C00002F5806303EB4101084600BF55B9038840
:1040D00048F2FF3C03EA0C030380038843F40043E7
:1040E000038019E03E2D0BD800BF690805F00103DD
:1040F00003B1491C4FF6FF7303EA812303800BE0F1
:1041000000BF690905F01F0303B9491E4FF40043BE
:1041100043EA8123038000BF00BF12E0FFE760781D
:1041200001280ED100BF3046B6F850201044227846
:10413000022303EBC20200F5806303EB42010D8012
:1041400000BF00BF00BF3346607880BB00BF32466F
:10415000B6F850100A4421784FF0060808EBC10168
:1041600002F5806808EB4101084600BF75B9B0F858
:10417000008048F2FF3908EA0908A0F80080B0F88A
:10418000008048F40048A0F8008020E03E2D0FD8C1
:1041900000BF690805F00108B8F1000F00D0491C04
:1041A0004FF6FF7808EA8128A0F800800FE010E0C1
:1041B00000BF690905F01F08B8F1000F00D1491EC2
:1041C0004FF4004848EA8128A0F8008000BF00BFF3
:1041D0000FE0607801280CD1B6F850000344207835
:1041E000062101EBC00003F5806101EB400CACF847
:1041F000005000BF00BF00BF2178490036F8111001
:104200004BF68F7201EA020080F4805080F4005077
:1042100040F4004141F080012278520026F812104B
:1042200000BF0020BDE8F08301464FF43F42B1F8E3
:1042300040001043A1F840000020704710B502482C
:10424000FCF7FBFB10BD0000E40400200146B1F8C0
:10425000440070472DE9F04304460E4615464FEAE8
:10426000530CA046304608F5806909EB45026746C5
:104270000AE01188921C0170401C4FEA112980F855
:104280000090401C921C7F1E002FF2D103F0010908
:10429000B9F1000F01D011880170BDE8F08302462A
:1042A00000207047024611B98020A2F84C0000207F
:1042B00070472DE9F04704460D461E4606F1010AF7
:1042C0004FEA5A08A146284609F5806A0AEB4203DC
:1042D00047460BE090F800C0401C90F800A04CEA64
:1042E0000A2119809B1C9B1C401C7F1E002FF1D1B2
:1042F000BDE8F08700BFFEE702480068C0F3022077
:10430000704700000CED00E010B5002804DB0A0740
:10431000130E054A135406E00A07140E034A00F070
:104320000F031B1FD45410BD00E400E018ED00E0A3
:1043300002E008C8121F08C1002AFAD1704770476E
:10434000002001E001C1121F002AFBD17047FCF7D9
:104350003DF9FDF76EFDFDF79DFAFDF71DFBFDF73D
:104360003DFBFDF757FBFBF759FF00BFFEE70000E1
:10437000024A12680A43014B1A607047700100201C
:104380000000000000000000010203040607080905
:104390000000000001020304B843000800000020F0
:1043A0008801000090010008804400088801002076
:1043B0002010000040430008411311251B08610430
:1043C0001A71041A9D041AE50413D5241B08210848
:1043D00013120132021640830450572602010203D1
:1043E00001071A040309041A03120617FF0901A1A1
:1043F0000115280B25FF7508954009018102063A31
:10440000910625B102C054142003021408EB011BCD
:10441000080D081AF508413210195F215324F413CE
:1044200099211408F7204C084522201A37101AB198
:10443000101AD104C11A79181A69041A89041A5970
:10444000041409022913010125C03209042A02A912
:104450001509211101140122201607058103402DA1
:104460000507050107291A091E2C4A012C2998095C
:104470002B58691A31130A0632023A40DC01170040
:04000005080000ED02
:00000001FF
